:020000040800F2
:1000000000000120590E0008A90E0008A90E0008E2
:10001000A90E0008A90E0008A90E000800000000A3
:10002000000000000000000000000000A90E000811
:10003000A90E000800000000A90E0008A90E000883
:1000400000000000A90E0008A90E0008A90E000873
:10005000A90E0008A90E0008A90E0008A90E0008A4
:10006000A90E0008A90E0008A90E0008A90E000894
:10007000A90E0008A90E0008A90E0008A90E000884
:10008000A90E0008A90E0008A90E00080000000033
:10009000000000000000000000000000A90E0008A1
:1000A000A90E0008A90E0008A90E0008A90E000854
:1000B000A90E0008A90E0008A90E0008A90E000844
:1000C000A90E0008A90E0008A90E0008A90E000834
:1000D000A90E0008D10C0008A90E000800000000BD
:1000E000A90E0008A90E0008A90E000800000000D3
:1000F000000000000000000000000000A90E000841
:1001000000000000A90E0008A90E0008A90E0008B2
:1001100000000000000000000000000000000000DF
:10012000A90E0008A90E0008A90E0008A90E0008D3
:10013000A90E000800000000000000000000000000
:10014000000000000000000000000000A90E0008F0
:10015000A90E0008A90E0008A90E0008A90E0008A3
:10016000A90E0008A90E0008000000000000000011
:10017000000000000000000000000000000000007F
:10018000000000000000000000000000000000006F
:04019000A90E0008AC
:1001A00010B5054C237833B9044B13B10448AFF3B1
:1001B00000800123237010BD7C000020000000009F
:1001C0008817000808B5034B1BB103490348AFF378
:1001D000008008BD00000000800000208817000893
:1001E000034613F8012B002AFBD1181A0138704777
:1001F00001F0FF01102A2BDB10F0070F08D010F8D8
:10020000013B013A8B422DD010F0070F42B3F6D1DB
:10021000F0B441EA012141EA014122F007047FF0F4
:1002200000070023F0E80256083C85EA010586EA4B
:10023000010685FA47F5A3FA87F586FA47F6A5FA87
:1002400087F68EB9EED1F0BC01F0FF0102F0070293
:1002500032B110F8013B013A83EA010313B1F8D13E
:100260000020704701387047002D06BF354603381F
:10027000073815F0010F07D1013015F4807F02BF58
:10028000013015F4C03F0130F0BC0138704700BFA9
:1002900080B483B000AF0346FB7197F907305A4230
:1002A00003F01F0302F01F0258BF53425BB21A460D
:1002B000012303FA02F1084A97F90730002B00DA0C
:1002C0001F335B115BB242F8231000BF0C37BD46F1
:1002D0005DF8047B704700BF00E100E080B582B0AC
:1002E00000AF0023FB7107E006210E4800F09CFCE4
:1002F00000F098F90346FB71FB79002BF4D0002342
:10030000FB7107E01421084800F08EFC00F08AF928
:100310000346FB71FB79002BF4D000BF00BF083708
:10032000BD4680BDA0170008A817000890B59DB075
:1003300000AF78603960002387F86F3000233B728C
:1003400007F108031846FFF74BFF03461A4607F16B
:1003500008031344264A1C46134607CB20606160FD
:10036000A2601B88A38107F108032249184600F008
:10037000EFFD07F108037968184600F0E9FD07F181
:1003800008031C49184600F0E3FD07F108031A4969
:10039000184600F0DDFD07F108031649184600F085
:1003A000D7FD07F108033968184600F0D1FD07F1C1
:1003B00008031049184600F0CBFD07F108030F4968
:1003C000184600F0C5FD0AE007F10803642118464D
:1003D00000F02AFC00F04CF9034687F86F3097F8DC
:1003E0006F30002BF0D000BF00BF7437BD4690BD0A
:1003F000B8170008000000200400002008000020BA
:1004000090B591B000AFF860B9607A60002387F8CA
:100410003F3000233B7507F114031846FFF7E0FE59
:1004200003461A4607F1140313442D4A1C4613468B
:1004300007CB20606160A2601B78237307F114036F
:100440002849184600F084FD07F11403F96818469E
:1004500000F07EFD07F114032249184600F078FDF4
:1004600007F114032049184600F072FD07F1140348
:100470001C49184600F06CFD07F11403B9681846D2
:1004800000F066FD07F114031649184600F060FD00
:1004900007F114031449184600F05AFD07F114033C
:1004A0007968184600F054FD07F114030F49184607
:1004B00000F04EFD0AE007F114032A21184600F06F
:1004C000B3FB00F0FDF8034687F83F3097F83F3064
:1004D000002BF0D000BF00BF4437BD4690BD00BF29
:1004E000C8170008000000200400002008000020B9
:1004F000B0B58EB000AF786039606B461D46002302
:1005000087F837307868FFF76BFE03469C1C23465C
:10051000013B3B6320464FF000014FF000024FF0DB
:100520000003CB0043EA5073C20020464FF00001A5
:100530004FF000024FF00003CB0043EA5073C200BB
:10054000E31DDB08DB00ADEB030D6B460033FB6204
:1005500007F110032F4A07CA83E807007868FFF7FE
:100560003FFE0346DBB2023387F82B3097F82B208F
:1005700007F10C032849184600F0CAFC07F10C02E9
:1005800007F110031146184600F0E2FC07F11003D2
:100590002249184600F0DCFC0AE007F1100319219B
:1005A000184600F041FB00F0CDF8034687F83730DD
:1005B00097F83730002BF0D0002387F83730FB6AEC
:1005C00000221A70FB6A7968184600F0C1FCFB6AC9
:1005D0001249184600F0BCFC09E0FB6A30211846BD
:1005E00000F022FB00F0D4F8034687F8373097F884
:1005F0003730002BF1D00A4B93F8323087F82A308D
:100600003B6897F82A201A70AD4600BF3837BD46C0
:10061000B0BD00BFD8170008E4170008080000208C
:100620009800002080B59AB000AF00233B603B1DCE
:1006300060220021184600F063FC002387F8673031
:100640003B460A4A0221184600F016FB3B784F2B26
:10065000F6D17B784B2BF3D1012387F8673000BFAD
:1006600097F8673018466837BD4680BDD107000847
:1006700080B59AB000AF00233B603B1D6022002193
:10068000184600F03DFC002387F867303B460B4AD4
:100690003321184600F0F0FA97F830304F2BF5D19F
:1006A00097F831304B2BF1D1012387F8673000BF29
:1006B00097F8673018466837BD4680BDD1070008F7
:1006C00080B59AB000AF00233B603B1D6022002143
:1006D000184600F015FC002387F86730174B1B788D
:1006E000002B13D13B46164A0221184600F0C4FAEB
:1006F0003B784F2BF6D17B784B2BF3D1012387F836
:10070000673000BF0D4B01221A7010E03B460C4AC7
:100710006421184600F0B0FA97F840304F2BF5D11D
:1007200097F841304B2BF1D1012387F8673097F8C8
:10073000673018466837BD4680BD00BFFC0000200A
:10074000D107000880B59AB000AF00233B603B1D85
:1007500060220021184600F0D3FB002387F86730A1
:100760003B460A4A0221184600F086FA3B784F2B96
:10077000F6D17B784B2BF3D1012387F8673000BF8C
:1007800097F8673018466837BD4680BDD107000826
:1007900080B582B000AF0023FB710B4A64210B4887
:1007A00000F06AFA094B93F83230312B04D0074B32
:1007B00093F83230302BF0D10123FB7100BFFB796D
:1007C00018460837BD4680BDD107000898000020B4
:1007D00080B400AF00BFBD465DF8047B70470000E9
:1007E00080B483B000AF0346FB710B46BB71134668
:1007F0007B71FB79022B1ED0022B28DC002B02D050
:10080000012B0CD023E0154B1B687979BA79520083
:1008100001FA02F21146114A0B43136017E0104B24
:100820001B687979BA79520001FA02F211460C4A32
:100830000B4313600BE00B4B1B687979BA795200BC
:1008400001FA02F21146074A0B43136000BF00BFD2
:100850000C37BD465DF8047B704700BF00000240C6
:10086000000402400008024080B483B000AF034699
:10087000FB710B46BB7113467B71BB79072B2DD8DF
:10088000FB79022B1ED0022B5CDC002B02D0012B4B
:100890000CD057E02E4B1B6A7979BA79920001FA95
:1008A00002F211462A4A0B4313624BE0294B1B6AA2
:1008B0007979BA79920001FA02F21146254A0B437E
:1008C00013623FE0244B1B6A7979BA79920001FAEE
:1008D00002F21146204A0B43136233E0FB79022BEC
:1008E00022D0022B2EDC002B02D0012B0ED029E0CF
:1008F000174B5B6A7979BA7902F00702920001FA24
:1009000002F21146124A0B4353621BE0114B5B6A21
:100910007979BA7902F00702920001FA02F21146DF
:100920000C4A0B4353620DE00B4B5B6A7979BA7941
:1009300002F00702920001FA02F21146064A0B4346
:10094000536200BF00BF0C37BD465DF8047B7047A3
:1009500000000240000402400008024080B483B05E
:1009600000AF0346FB710B46BB7113467B717B796D
:10097000012B2AD1FB79022B1CD0022B57DC002B38
:1009800002D0012B0BD052E02C4B5B69BA790121CC
:1009900001FA02F21146294A0B43536147E0284B02
:1009A0005B69BA79012101FA02F21146244A0B432C
:1009B00053613CE0234B5B69BA79012101FA02F2F1
:1009C0001146204A0B43536131E07B79002B2DD136
:1009D000FB79022B1ED0022B29DC002B02D0012B2D
:1009E0000CD024E0154B5B69BA79012101FA02F2BF
:1009F000D2431146114A0B40536118E0104B5B691A
:100A0000BA79012101FA02F2D24311460C4A0B4095
:100A100053610CE00B4B5B69BA79012101FA02F2D8
:100A2000D2431146074A0B40536100E000BF00BFAC
:100A30000C37BD465DF8047B704700BF00000240E4
:100A4000000402400008024080B483B000AF786028
:100A5000254A136843F001031360234A136843F4E3
:100A600080331360204A136843F0807313607B68FF
:100A70001B781D4A03F00303D9B2936861F30103A5
:100A800093607B689B7A184A03F00103D9B213681C
:100A900061F3924313607B681B78022B1CD0022BFE
:100AA0001BDC002B02D0012B0BD016E07B681B89CE
:100AB0000D4A03F00F03D9B2936861F307139360F3
:100AC0000BE07B681B89084A03F01F03D9B29368C7
:100AD00061F31443936000E000BF00BF0C37BD46D4
:100AE0005DF8047B704700BF0038024080B483B0DB
:100AF00000AF03460A46FB711346BB71FB79032B1B
:100B000036D801A252F823F0450B00085B0B000811
:100B1000190B00082F0B0008194B1B6BBA79012128
:100B200001FA02F21146164A0B43136321E0144BFB
:100B30005B6BBA79012101FA02F21146104A0B43AC
:100B4000536316E00E4B1B6CBA79012101FA02F2D5
:100B500011460B4A0B4313640BE0094B5B6CBA79EB
:100B6000012101FA02F21146054A0B43536400E0E9
:100B700000BF00BF0C37BD465DF8047B704700BF67
:100B80000038024080B483B000AF7860124B00227E
:100B90001A607B681B78104A03F00103D9B213680E
:100BA00061F3820313607B685B78002B0DD07B6858
:100BB0005B68002B04D07B685B68084A136004E024
:100BC000054A13686FF34103136000BF0C37BD463D
:100BD0005DF8047B704700BF10E000E008010020D2
:100BE00080B400AF0F4BDB680E4A43F00803D360BC
:100BF0000C4BDB680B4A43F00403D360094BDB6802
:100C0000084A23F48053D360064B8B229A60054B2D
:100C1000DB68044A43F40053D36000BFBD465DF86F
:100C2000047B70470010014080B485B000AF78604D
:100C30000B46FB700023FB7310E000BF0D4B1B68DD
:100C40009B0903F00103002BF8D0FB7B7A68134467
:100C50001A78084B5A60FB7B0133FB73FA7BFB78F5
:100C60009A42EAD300BF00BF1437BD465DF8047B4B
:100C7000704700BF0010014080B584B000AFF8603D
:100C80000B467A60FB72FB68002B02D17B68002B5D
:100C900011D00B4AFB6813600A4AFB7A13700A4AA8
:100CA0007B6813602520FFF7F3FA084BDB68074ADF
:100CB00043F02003D36000BF1037BD4680BD00BFA6
:100CC0000C01002010010020140100200010014040
:100CD00080B500AF114B5968114B1B68114A12784F
:100CE0001344CAB21A700F4B1B780133DAB20D4BA2
:100CF0001A700C4B1A780C4B1B789A4205D1094B91
:100D000000221A70094B1B689847044B1B68034A62
:100D100023F02003136000BF80BD00BF001001401E
:100D20000C010020110100201001002014010020FE
:100D300080B582B000AF2548FFF786FE0021022073
:100D4000FFF7D4FE04210120FFF7D0FE2048FFF773
:100D500019FF022209210020FFF742FD02220A2189
:100D60000020FFF73DFD072209210020FFF77CFD51
:100D700007220A210020FFF777FDFFF731FF01224C
:100D800001210020FFF72CFDFFF7A8FA11491248B6
:100D9000FFF7CCFA114A12491248FFF731FBFB1D4D
:100DA00019461148FFF7A4FBFB79312B05D101222D
:100DB00001210020FFF7D2FD07E0FB79302B04D1A1
:100DC000002201210020FFF7C9FDFEE70C000020F2
:100DD00000010020E8170008001800080C1800089F
:100DE00010180008201800082418000880B586B0E4
:100DF00000AF7860144A154BD31A7B617B693B6165
:100E0000134B1B68002B02D1114B124A1A60104B76
:100E10001A687B6813443A699A4207D200F046F890
:100E200003460C221A604FF0FF3309E0084B1B68A1
:100E3000FB60074B1A687B681344054A1360FB6824
:100E400018461837BD4680BD000001200004000090
:100E500018010020380100200D488546AFF30080BE
:100E60000C480D490D4A002302E0D458C450043305
:100E7000C4188C42F9D30A4A0A4C002301E01360DB
:100E80000432A242FBD300F017F8FFF751FFFEE750
:100E900000000120000000207C00002090180008C5
:100EA0007C00002034010020FEE70000014B1868A0
:100EB000704700BF1800002070B50D4D0D4C641B2D
:100EC000A4100026A64209D10B4D0C4C00F05CFC8E
:100ED000641BA4100026A64205D170BD55F8043B42
:100EE00098470136EEE755F8043B98470136F2E79C
:100EF0008818000888180008881800088C1800084E
:100F000002440346934200D1704703F8011BF9E7FE
:100F10000EB400B59CB01DAB029006906FF000417E
:100F2000094807910491094953F8042B0591006879
:100F3000019302A900F076F8029B00221A701CB0FF
:100F40005DF804EB03B07047180000200802FFFFB3
:100F500010B50246147813460132002CFAD1013B39
:100F600011F8012B03F8012F002AF9D110BD2DE94A
:100F7000F0478E689E4282460C4690461F4638D8FF
:100F80008A8912F4906F32D025680969A5EB0109AE
:100F9000656905EB450505EBD57501334B446D10CF
:100FA0009D4238BF1D46530531D5294600F046FB0A
:100FB000064650B90C23CAF80030A38943F0400319
:100FC000A3814FF0FF30BDE8F08721694A4600F069
:100FD000BDFAA38923F4906343F08003A3812661C3
:100FE00065614E44A5EB09052660A5603E46BE42FC
:100FF00000D93E4632462068414600F0B5FAA36863
:1010000022689B1B3244A36022600020DBE72A4653
:1010100000F06EFB06460028E1D12169504600F041
:10102000BDFAC7E72DE9F04F98468B891B069DB0A6
:1010300007460D4614460ED50B6963B9402100F0F2
:10104000FDFA2860286120B90C233B604FF0FF3087
:10105000D1E040236B610023099320238DF82930D0
:10106000CDF80C803023DFF8A8818DF82A304FF0BE
:10107000010923469A4613F8012B0AB1252AF9D112
:10108000BAEB040B0BD05B46224629463846FFF7E5
:101090006EFF013000F0AA80099A5A4409929AF82A
:1010A0000030002B00F0A28000234FF0FF32CDE98A
:1010B00005230AF1010A049307938DF853301A931C
:1010C0005446052214F8011B5148FFF791F8049A81
:1010D000D8B9D00644BF20238DF85330110744BF40
:1010E0002B238DF853309AF800302A2B15D0079A0D
:1010F000544600204FF00A0C214611F8013B303BCA
:10110000092B4ED9B0B1079214E0A0EB080309FAFD
:1011100003F313430493A246D2E7039B191D1B68F4
:101120000391002BBBBF5B4242F00202079307937F
:10113000B8BF049223782E2B0CD163782A2B35D19B
:10114000039B1A1D1B680392002BB8BF4FF0FF339F
:1011500002340593DFF8C8A0217803225046FFF738
:1011600047F840B14023A0EB0A0003FA00F0049BCB
:1011700003430134049314F8011B26488DF828100A
:101180000622FFF735F8002838D0234B1BBB039B02
:10119000073323F0070308330393099B3344099370
:1011A00067E70CFB02320C460120A5E7002301345F
:1011B000059319464FF00A0C204610F8012B303ADF
:1011C000092A03D9002BC5D00591C3E70CFB0121E7
:1011D00004460123F0E703AB00932A460F4B04A912
:1011E0003846AFF30080421C0646D6D1AB895B0679
:1011F0003FF52CAF09981DB0BDE8F08F03AB00930D
:101200002A46064B04A9384600F07AF8EBE700BFFF
:10121000521800085C180008000000006F0F00085A
:10122000581800082DE9F047164699468A680B6958
:10123000DDF820809342B8BF1346336091F8432015
:1012400007460C460AB1013333602368990642BF52
:10125000336802333360256815F0060506D104F1C2
:10126000190AE36832689B1AAB4226DC94F84320E3
:10127000131E226818BF012392062BD404F14302E7
:1012800049463846C04701301ED02368E5683268B9
:1012900003F00603042B08BFAD1AA36822690CBF34
:1012A00025EAE57500259342C4BF9B1AED18002678
:1012B0001A34B5421AD1002008E0012352464946AB
:1012C0003846C047013003D14FF0FF30BDE8F0870A
:1012D0000135C6E7E1185A1C302081F8430022444A
:1012E00094F8451082F843100233C7E701232246E1
:1012F00049463846C0470130E6D00136D9E70000FC
:101300002DE9FF470C469146277E0C99782F8046A1
:101310009A4604F1430207D8622F0AD8002F00F042
:10132000D880582F00F0A38004F1420684F8427060
:101330003AE0A7F16303152BF6D801A050F823F08B
:1013400099130008AD130008291300082913000899
:101350002913000829130008AD13000829130008F9
:10136000291300082913000829130008B9140008DC
:10137000DD1300089B140008291300082913000836
:10138000DB14000829130008DD13000829130008E6
:1013900029130008A31400080B681A1D1B680A60B3
:1013A00004F1420684F842300123A3E0256808686E
:1013B0002E0600F104030AD505680B60002D03DA40
:1013C0002D236D4284F843305E480A2319E015F05E
:1013D000400F05680B6018BF2DB2EFE70B6825685A
:1013E000181D0860280601D51D6802E06906FBD5B6
:1013F0001D8854486F2F0CBF08230A23002184F84E
:1014000043106668A660002EA2BF216821F0040187
:1014100021600DB9002E4DD01646B5FBF3F103FB4C
:101420001157C75D06F8017D2F46BB420D46F4D922
:10143000082B0BD12368DF0708D52369616899421F
:10144000DEBF302306F8013C06F1FF36921B226115
:10145000CDF800A04B4603AA21464046FFF7E2FE26
:1014600001304CD14FF0FF3004B0BDE8F087354873
:1014700084F8457023680E681F0656F8045B0E60FA
:1014800014D5D90744BF43F0200323601DB9236856
:1014900023F0200323601023B0E7236843F02003E8
:1014A00023607823284884F84530E3E75E0648BF88
:1014B000ADB2E6E71646BBE70B68266860691D1DFE
:1014C0000D6035061B6801D5186002E07106FBD57A
:1014D0001880002323611646BAE70B681A1D0A60BC
:1014E0001E68626800213046FEF782FE08B1801B4C
:1014F000606063682361002384F84330A8E72369B0
:10150000324649464046D0470130ABD023689B075E
:1015100013D4E068039B9842B8BF1846A4E70123A0
:10152000324649464046D04701309BD00135E368FA
:1015300003995B1AAB42F2DCEBE7002504F11906D4
:10154000F5E700BF63180008741800080A449142C8
:1015500000F1FF3300D1704710B511F8014B03F8CB
:10156000014F9142F9D110BD884210B501EB020440
:1015700002D98442234607D8431EA14208D011F85D
:10158000012B03F8012FF8E7024401468A4200D1FB
:1015900010BD13F8014D02F8014DF7E737B50029EA
:1015A00048D051F8043C0190002BA1F10404B8BFCD
:1015B000E41800F0D3F8204A01981368154633B9AF
:1015C0006360146003B0BDE8304000F0CDB8A342C2
:1015D0000BD921686218934204BF1A685B68636084
:1015E00004BF521822602C60ECE71A465B680BB10E
:1015F000A342FAD911685518A5420BD12468214499
:101600005418A3421160DDD11C685B68536021440B
:101610001160D7E702D90C230360D3E7256861196D
:101620008B4204BF19685B68636004BF491921607D
:101630005460C7E703B030BD1C010020F8B5CD1CD5
:1016400025F0030508350C2D38BF0C25002D064666
:1016500001DBA94203D90C2333600020F8BD00F060
:101660007DF821490A6814469CB9204F3B6823B98C
:101670002146304600F062F838602946304600F0D6
:101680005DF8431C23D10C233360304600F06CF826
:10169000E3E723685B1B17D40B2B03D923601C449F
:1016A000256004E06368A2420CBF0B6053603046C3
:1016B00000F05AF804F10B00231D20F00700C21AB5
:1016C000CCD01B1AA350C9E722466468CCE7C41CDF
:1016D00024F00304A042E3D0211A304600F02EF893
:1016E0000130DDD1CFE700BF1C0100202001002028
:1016F000F8B5074614460E4621B9BDE8F840114634
:10170000FFF79CBF22B9FFF749FF25462846F8BDE1
:1017100000F030F8A0420FD221463846FFF78EFF86
:1017200005460028F2D031462246FFF70FFF31462A
:101730003846FFF733FFE9E73546E7E738B5064DAA
:101740000023044608462B60FFF750FB431C02D1E0
:101750002B6803B1236038BD24010020014800F04C
:1017600011B800BF2C010020014800F00CB800BFE8
:101770002C01002051F8043C181F002BBCBF0B5853
:10178000C018704770477047F8B500BFF8BC08BC78
:101790009E467047F8B500BFF8BC08BC9E4670472F
:1017A000415445300D0A000041542B43574D4F44DE
:1017B000453D310D0A00000041542B43574A41502A
:1017C0005F4355523D00000041542B434950535450
:1017D0004152543D0000000041542B4349505345B1
:1017E0004E443D00256400003836333438363334F7
:1017F0006164656C48414E49232340402A2A000019
:101800004164656C5F48616E69000000383000001B
:1018100032332E3137392E33322E33370000000069
:101820005443500047455420687474703A2F2F6118
:1018300064656C68616E6961726D2E66726565764D
:1018400061722E636F6D2F7374617475732E74786B
:101850007400232D302B2000686C4C0065666745B2
:101860004647003031323334353637383941424318
:1018700044454600303132333435363738396162C9
:081880006364656600000000CE
:04188800C50100088E
:04188C00A1010008AE
:10189000220000002C0000000D0A000000000000E3
:1018A0000024F400000000001C00002000000000E4
:1018B0000000000000000000000000000000000028
:1018C0000000000000000000000000000000000018
:1018D0000000000000000000000000000000000008
:1018E00000000000000000000000000000000000F8
:1018F00000000000000000000000000000000000E8
:0C190000000000000000000000000000DB
:0400000508000E5988
:00000001FF
